01REMESSA01COBRAN«A       30945000327964      J REZENDE -ME                 756BANCOOBCED     1912160000004                                                                                                                                                                                                                                                                                               000001
1022542123500018830945000316741000000                         0000000104100100       0000000000          201010025830117100117000000000349075630945010181116010100099000100020000000000000000000900000000000000000000000000100010651864607jales andre dos santos                  RUA PE VICTOR C. ALMEIDA        ,60  ALVORADA       38180036ARAXA          MG SENHOR CAIXA APOS O VENCIMENTO COBRAR J00 000002
1022542123500018830945000316741000000                         0000000104270100       0000000000          201010025830217100217000000000349075630945010181116010100099000100020000000000000000000900000000000000000000000000100010651864607jales andre dos santos                  RUA PE VICTOR C. ALMEIDA        ,60  ALVORADA       38180036ARAXA          MG SENHOR CAIXA APOS O VENCIMENTO COBRAR J00 000003
1022542123500018830945000316741000000                         0000000104340100       0000000000          201010025830317100317000000000349075630945010181116010100099000100020000000000000000000900000000000000000000000000100010651864607jales andre dos santos                  RUA PE VICTOR C. ALMEIDA        ,60  ALVORADA       38180036ARAXA          MG SENHOR CAIXA APOS O VENCIMENTO COBRAR J00 000004
1022542123500018830945000316741000000                         0000000104410100       0000000000          201010025830417100417000000000349075630945010181116010100099000100020000000000000000000900000000000000000000000000100010651864607jales andre dos santos                  RUA PE VICTOR C. ALMEIDA        ,60  ALVORADA       38180036ARAXA          MG SENHOR CAIXA APOS O VENCIMENTO COBRAR J00 000005
1022542123500018830945000316741000000                         0000000104590100       0000000000          201010025830517100517000000000349075630945010181116010100099000100020000000000000000000900000000000000000000000000100010651864607jales andre dos santos                  RUA PE VICTOR C. ALMEIDA        ,60  ALVORADA       38180036ARAXA          MG SENHOR CAIXA APOS O VENCIMENTO COBRAR J00 000006
1022542123500018830945000316741000000                         0000000104660100       0000000000          201010025830617100617000000000349075630945010181116010100099000100020000000000000000000900000000000000000000000000100010651864607jales andre dos santos                  RUA PE VICTOR C. ALMEIDA        ,60  ALVORADA       38180036ARAXA          MG SENHOR CAIXA APOS O VENCIMENTO COBRAR J00 000007
1022542123500018830945000316741000000                         0000000104730100       0000000000          201010025830717100717000000000349075630945010181116010100099000100020000000000000000000900000000000000000000000000100010651864607jales andre dos santos                  RUA PE VICTOR C. ALMEIDA        ,60  ALVORADA       38180036ARAXA          MG SENHOR CAIXA APOS O VENCIMENTO COBRAR J00 000008
1022542123500018830945000316741000000                         0000000104800100       0000000000          201010025830817100817000000000349075630945010181116010100099000100020000000000000000000900000000000000000000000000100010651864607jales andre dos santos                  RUA PE VICTOR C. ALMEIDA        ,60  ALVORADA       38180036ARAXA          MG SENHOR CAIXA APOS O VENCIMENTO COBRAR J00 000009
1022542123500018830945000316741000000                         0000000104980100       0000000000          201010025830917100917000000000349075630945010181116010100099000100020000000000000000000900000000000000000000000000100010651864607jales andre dos santos                  RUA PE VICTOR C. ALMEIDA        ,60  ALVORADA       38180036ARAXA          MG SENHOR CAIXA APOS O VENCIMENTO COBRAR J00 000010
1022542123500018830945000316741000000                         0000000105060100       0000000000          201010025831017101017000000000349075630945010181116010100099000100020000000000000000000900000000000000000000000000100010651864607jales andre dos santos                  RUA PE VICTOR C. ALMEIDA        ,60  ALVORADA       38180036ARAXA          MG SENHOR CAIXA APOS O VENCIMENTO COBRAR J00 000011
1022542123500018830945000316741000000                         0000000105130100       0000000000          201010025831117101117000000000349075630945010181116010100099000100020000000000000000000900000000000000000000000000100010651864607jales andre dos santos                  RUA PE VICTOR C. ALMEIDA        ,60  ALVORADA       38180036ARAXA          MG SENHOR CAIXA APOS O VENCIMENTO COBRAR J00 000012
1022542123500018830945000316741000000                         0000000105200100       0000000000          201010025831217101217000000000349075630945010181116010100099000100020000000000000000000900000000000000000000000000100010651864607jales andre dos santos                  RUA PE VICTOR C. ALMEIDA        ,60  ALVORADA       38180036ARAXA          MG SENHOR CAIXA APOS O VENCIMENTO COBRAR J00 000013
1022542123500018830945000316741000000                         0000000105380100       0000000000          201010015610117100117000000000294075630945010181116010100099000100020000000000000000000900000000000000000000000000100005128745651meire rosa da rocha                     RUA SERGIPE                     ,80  SAO GERALDO    38180078ARAXA          MG SENHOR CAIXA APOS O VENCIMENTO COBRAR J00 000014
1022542123500018830945000316741000000                         0000000105450100       0000000000          201010015610217100217000000000294075630945010181116010100099000100020000000000000000000900000000000000000000000000100005128745651meire rosa da rocha                     RUA SERGIPE                     ,80  SAO GERALDO    38180078ARAXA          MG SENHOR CAIXA APOS O VENCIMENTO COBRAR J00 000015
1022542123500018830945000316741000000                         0000000105520100       0000000000          201010015610317100317000000000294075630945010181116010100099000100020000000000000000000900000000000000000000000000100005128745651meire rosa da rocha                     RUA SERGIPE                     ,80  SAO GERALDO    38180078ARAXA          MG SENHOR CAIXA APOS O VENCIMENTO COBRAR J00 000016
1022542123500018830945000316741000000                         0000000105600100       0000000000          201010015610417100417000000000294075630945010181116010100099000100020000000000000000000900000000000000000000000000100005128745651meire rosa da rocha                     RUA SERGIPE                     ,80  SAO GERALDO    38180078ARAXA          MG SENHOR CAIXA APOS O VENCIMENTO COBRAR J00 000017
1022542123500018830945000316741000000                         0000000105770100       0000000000          201010015610517100517000000000294075630945010181116010100099000100020000000000000000000900000000000000000000000000100005128745651meire rosa da rocha                     RUA SERGIPE                     ,80  SAO GERALDO    38180078ARAXA          MG SENHOR CAIXA APOS O VENCIMENTO COBRAR J00 000018
1022542123500018830945000316741000000                         0000000105840100       0000000000          201010015610617100617000000000294075630945010181116010100099000100020000000000000000000900000000000000000000000000100005128745651meire rosa da rocha                     RUA SERGIPE                     ,80  SAO GERALDO    38180078ARAXA          MG SENHOR CAIXA APOS O VENCIMENTO COBRAR J00 000019
1022542123500018830945000316741000000                         0000000105910100       0000000000          201010015610717100717000000000294075630945010181116010100099000100020000000000000000000900000000000000000000000000100005128745651meire rosa da rocha                     RUA SERGIPE                     ,80  SAO GERALDO    38180078ARAXA          MG SENHOR CAIXA APOS O VENCIMENTO COBRAR J00 000020
1022542123500018830945000316741000000                         0000000106000100       0000000000          201010015610817100817000000000294075630945010181116010100099000100020000000000000000000900000000000000000000000000100005128745651meire rosa da rocha                     RUA SERGIPE                     ,80  SAO GERALDO    38180078ARAXA          MG SENHOR CAIXA APOS O VENCIMENTO COBRAR J00 000021
1022542123500018830945000316741000000                         0000000106170100       0000000000          201010015610917100917000000000294075630945010181116010100099000100020000000000000000000900000000000000000000000000100005128745651meire rosa da rocha                     RUA SERGIPE                     ,80  SAO GERALDO    38180078ARAXA          MG SENHOR CAIXA APOS O VENCIMENTO COBRAR J00 000022
1022542123500018830945000316741000000                         0000000106240100       0000000000          201010015611017101017000000000294075630945010181116010100099000100020000000000000000000900000000000000000000000000100005128745651meire rosa da rocha                     RUA SERGIPE                     ,80  SAO GERALDO    38180078ARAXA          MG SENHOR CAIXA APOS O VENCIMENTO COBRAR J00 000023
1022542123500018830945000316741000000                         0000000106310100       0000000000          201010015611117101117000000000294075630945010181116010100099000100020000000000000000000900000000000000000000000000100005128745651meire rosa da rocha                     RUA SERGIPE                     ,80  SAO GERALDO    38180078ARAXA          MG SENHOR CAIXA APOS O VENCIMENTO COBRAR J00 000024
1022542123500018830945000316741000000                         0000000106490100       0000000000          201010015611217101217000000000294075630945010181116010100099000100020000000000000000000900000000000000000000000000100005128745651meire rosa da rocha                     RUA SERGIPE                     ,80  SAO GERALDO    38180078ARAXA          MG SENHOR CAIXA APOS O VENCIMENTO COBRAR J00 000025
1022542123500018830945000316741000000                         0000000106560100       0000000000          201010015680117100117000000000294075630945010181116010100099000100020000000000000000000900000000000000000000000000100090284577634silvia aparecida de oliveira            AVENIDA WASHINGTON BARCELOS     ,518 SANTA RITA     38181480ARAXA          MG SENHOR CAIXA APOS O VENCIMENTO COBRAR J00 000026
1022542123500018830945000316741000000                         0000000106630100       0000000000          201010015680217100217000000000294075630945010181116010100099000100020000000000000000000900000000000000000000000000100090284577634silvia aparecida de oliveira            AVENIDA WASHINGTON BARCELOS     ,518 SANTA RITA     38181480ARAXA          MG SENHOR CAIXA APOS O VENCIMENTO COBRAR J00 000027
1022542123500018830945000316741000000                         0000000106700100       0000000000          201010015680317100317000000000294075630945010181116010100099000100020000000000000000000900000000000000000000000000100090284577634silvia aparecida de oliveira            AVENIDA WASHINGTON BARCELOS     ,518 SANTA RITA     38181480ARAXA          MG SENHOR CAIXA APOS O VENCIMENTO COBRAR J00 000028
1022542123500018830945000316741000000                         0000000106880100       0000000000          201010015680417100417000000000294075630945010181116010100099000100020000000000000000000900000000000000000000000000100090284577634silvia aparecida de oliveira            AVENIDA WASHINGTON BARCELOS     ,518 SANTA RITA     38181480ARAXA          MG SENHOR CAIXA APOS O VENCIMENTO COBRAR J00 000029
1022542123500018830945000316741000000                         0000000106950100       0000000000          201010015680517100517000000000294075630945010181116010100099000100020000000000000000000900000000000000000000000000100090284577634silvia aparecida de oliveira            AVENIDA WASHINGTON BARCELOS     ,518 SANTA RITA     38181480ARAXA          MG SENHOR CAIXA APOS O VENCIMENTO COBRAR J00 000030
1022542123500018830945000316741000000                         0000000107030100       0000000000          201010015680617100617000000000294075630945010181116010100099000100020000000000000000000900000000000000000000000000100090284577634silvia aparecida de oliveira            AVENIDA WASHINGTON BARCELOS     ,518 SANTA RITA     38181480ARAXA          MG SENHOR CAIXA APOS O VENCIMENTO COBRAR J00 000031
1022542123500018830945000316741000000                         0000000107100100       0000000000          201010015680717100717000000000294075630945010181116010100099000100020000000000000000000900000000000000000000000000100090284577634silvia aparecida de oliveira            AVENIDA WASHINGTON BARCELOS     ,518 SANTA RITA     38181480ARAXA          MG SENHOR CAIXA APOS O VENCIMENTO COBRAR J00 000032
1022542123500018830945000316741000000                         0000000107280100       0000000000          201010015680817100817000000000294075630945010181116010100099000100020000000000000000000900000000000000000000000000100090284577634silvia aparecida de oliveira            AVENIDA WASHINGTON BARCELOS     ,518 SANTA RITA     38181480ARAXA          MG SENHOR CAIXA APOS O VENCIMENTO COBRAR J00 000033
1022542123500018830945000316741000000                         0000000107350100       0000000000          201010015680917100917000000000294075630945010181116010100099000100020000000000000000000900000000000000000000000000100090284577634silvia aparecida de oliveira            AVENIDA WASHINGTON BARCELOS     ,518 SANTA RITA     38181480ARAXA          MG SENHOR CAIXA APOS O VENCIMENTO COBRAR J00 000034
1022542123500018830945000316741000000                         0000000107420100       0000000000          201010015681017101017000000000294075630945010181116010100099000100020000000000000000000900000000000000000000000000100090284577634silvia aparecida de oliveira            AVENIDA WASHINGTON BARCELOS     ,518 SANTA RITA     38181480ARAXA          MG SENHOR CAIXA APOS O VENCIMENTO COBRAR J00 000035
1022542123500018830945000316741000000                         0000000107500100       0000000000          201010015681117101117000000000294075630945010181116010100099000100020000000000000000000900000000000000000000000000100090284577634silvia aparecida de oliveira            AVENIDA WASHINGTON BARCELOS     ,518 SANTA RITA     38181480ARAXA          MG SENHOR CAIXA APOS O VENCIMENTO COBRAR J00 000036
1022542123500018830945000316741000000                         0000000107670100       0000000000          201010015681217101217000000000294075630945010181116010100099000100020000000000000000000900000000000000000000000000100090284577634silvia aparecida de oliveira            AVENIDA WASHINGTON BARCELOS     ,518 SANTA RITA     38181480ARAXA          MG SENHOR CAIXA APOS O VENCIMENTO COBRAR J00 000037
1022542123500018830945000316741000000                         0000000107740100       0000000000          201010015740117100117000000000294075630945010181116010100099000100020000000000000000000900000000000000000000000000100036158267600clarindo marques de sa                  RUA IRINEIA ALVES DE PAIVA      ,223 VILA ESTANCI   38182382ARAXA          MG SENHOR CAIXA APOS O VENCIMENTO COBRAR J00 000038
1022542123500018830945000316741000000                         0000000107810100       0000000000          201010015740217100217000000000294075630945010181116010100099000100020000000000000000000900000000000000000000000000100036158267600clarindo marques de sa                  RUA IRINEIA ALVES DE PAIVA      ,223 VILA ESTANCI   38182382ARAXA          MG SENHOR CAIXA APOS O VENCIMENTO COBRAR J00 000039
1022542123500018830945000316741000000                         0000000107990100       0000000000          201010015740317100317000000000294075630945010181116010100099000100020000000000000000000900000000000000000000000000100036158267600clarindo marques de sa                  RUA IRINEIA ALVES DE PAIVA      ,223 VILA ESTANCI   38182382ARAXA          MG SENHOR CAIXA APOS O VENCIMENTO COBRAR J00 000040
1022542123500018830945000316741000000                         0000000108070100       0000000000          201010015740417100417000000000294075630945010181116010100099000100020000000000000000000900000000000000000000000000100036158267600clarindo marques de sa                  RUA IRINEIA ALVES DE PAIVA      ,223 VILA ESTANCI   38182382ARAXA          MG SENHOR CAIXA APOS O VENCIMENTO COBRAR J00 000041
1022542123500018830945000316741000000                         0000000108140100       0000000000          201010015740517100517000000000294075630945010181116010100099000100020000000000000000000900000000000000000000000000100036158267600clarindo marques de sa                  RUA IRINEIA ALVES DE PAIVA      ,223 VILA ESTANCI   38182382ARAXA          MG SENHOR CAIXA APOS O VENCIMENTO COBRAR J00 000042
1022542123500018830945000316741000000                         0000000108210100       0000000000          201010015740617100617000000000294075630945010181116010100099000100020000000000000000000900000000000000000000000000100036158267600clarindo marques de sa                  RUA IRINEIA ALVES DE PAIVA      ,223 VILA ESTANCI   38182382ARAXA          MG SENHOR CAIXA APOS O VENCIMENTO COBRAR J00 000043
1022542123500018830945000316741000000                         0000000108390100       0000000000          201010015740717100717000000000294075630945010181116010100099000100020000000000000000000900000000000000000000000000100036158267600clarindo marques de sa                  RUA IRINEIA ALVES DE PAIVA      ,223 VILA ESTANCI   38182382ARAXA          MG SENHOR CAIXA APOS O VENCIMENTO COBRAR J00 000044
1022542123500018830945000316741000000                         0000000108460100       0000000000          201010015740817100817000000000294075630945010181116010100099000100020000000000000000000900000000000000000000000000100036158267600clarindo marques de sa                  RUA IRINEIA ALVES DE PAIVA      ,223 VILA ESTANCI   38182382ARAXA          MG SENHOR CAIXA APOS O VENCIMENTO COBRAR J00 000045
1022542123500018830945000316741000000                         0000000108530100       0000000000          201010015740917100917000000000294075630945010181116010100099000100020000000000000000000900000000000000000000000000100036158267600clarindo marques de sa                  RUA IRINEIA ALVES DE PAIVA      ,223 VILA ESTANCI   38182382ARAXA          MG SENHOR CAIXA APOS O VENCIMENTO COBRAR J00 000046
1022542123500018830945000316741000000                         0000000108600100       0000000000          201010015741017101017000000000294075630945010181116010100099000100020000000000000000000900000000000000000000000000100036158267600clarindo marques de sa                  RUA IRINEIA ALVES DE PAIVA      ,223 VILA ESTANCI   38182382ARAXA          MG SENHOR CAIXA APOS O VENCIMENTO COBRAR J00 000047
1022542123500018830945000316741000000                         0000000108780100       0000000000          201010015741117101117000000000294075630945010181116010100099000100020000000000000000000900000000000000000000000000100036158267600clarindo marques de sa                  RUA IRINEIA ALVES DE PAIVA      ,223 VILA ESTANCI   38182382ARAXA          MG SENHOR CAIXA APOS O VENCIMENTO COBRAR J00 000048
1022542123500018830945000316741000000                         0000000108850100       0000000000          201010015741217101217000000000294075630945010181116010100099000100020000000000000000000900000000000000000000000000100036158267600clarindo marques de sa                  RUA IRINEIA ALVES DE PAIVA      ,223 VILA ESTANCI   38182382ARAXA          MG SENHOR CAIXA APOS O VENCIMENTO COBRAR J00 000049
1022542123500018830945000316741000000                         0000000108920100       0000000000          201010015840117100117000000000294075630945010181116010100099000100020000000000000000000900000000000000000000000000100068722010610sergio antonio filho                     ANTÙNIA DE OLIVEIRA SILVA      ,569 LOTEAMENTO V   38181222ARAXa          MG SENHOR CAIXA APOS O VENCIMENTO COBRAR J00 000050
1022542123500018830945000316741000000                         0000000109000100       0000000000          201010015840217100217000000000294075630945010181116010100099000100020000000000000000000900000000000000000000000000100068722010610sergio antonio filho                     ANTÙNIA DE OLIVEIRA SILVA      ,569 LOTEAMENTO V   38181222ARAXa          MG SENHOR CAIXA APOS O VENCIMENTO COBRAR J00 000051
1022542123500018830945000316741000000                         0000000109180100       0000000000          201010015840317100317000000000294075630945010181116010100099000100020000000000000000000900000000000000000000000000100068722010610sergio antonio filho                     ANTÙNIA DE OLIVEIRA SILVA      ,569 LOTEAMENTO V   38181222ARAXa          MG SENHOR CAIXA APOS O VENCIMENTO COBRAR J00 000052
1022542123500018830945000316741000000                         0000000109250100       0000000000          201010015840417100417000000000294075630945010181116010100099000100020000000000000000000900000000000000000000000000100068722010610sergio antonio filho                     ANTÙNIA DE OLIVEIRA SILVA      ,569 LOTEAMENTO V   38181222ARAXa          MG SENHOR CAIXA APOS O VENCIMENTO COBRAR J00 000053
1022542123500018830945000316741000000                         0000000109320100       0000000000          201010015840517100517000000000294075630945010181116010100099000100020000000000000000000900000000000000000000000000100068722010610sergio antonio filho                     ANTÙNIA DE OLIVEIRA SILVA      ,569 LOTEAMENTO V   38181222ARAXa          MG SENHOR CAIXA APOS O VENCIMENTO COBRAR J00 000054
1022542123500018830945000316741000000                         0000000109400100       0000000000          201010015840617100617000000000294075630945010181116010100099000100020000000000000000000900000000000000000000000000100068722010610sergio antonio filho                     ANTÙNIA DE OLIVEIRA SILVA      ,569 LOTEAMENTO V   38181222ARAXa          MG SENHOR CAIXA APOS O VENCIMENTO COBRAR J00 000055
1022542123500018830945000316741000000                         0000000109570100       0000000000          201010015840717100717000000000294075630945010181116010100099000100020000000000000000000900000000000000000000000000100068722010610sergio antonio filho                     ANTÙNIA DE OLIVEIRA SILVA      ,569 LOTEAMENTO V   38181222ARAXa          MG SENHOR CAIXA APOS O VENCIMENTO COBRAR J00 000056
1022542123500018830945000316741000000                         0000000109640100       0000000000          201010015840817100817000000000294075630945010181116010100099000100020000000000000000000900000000000000000000000000100068722010610sergio antonio filho                     ANTÙNIA DE OLIVEIRA SILVA      ,569 LOTEAMENTO V   38181222ARAXa          MG SENHOR CAIXA APOS O VENCIMENTO COBRAR J00 000057
1022542123500018830945000316741000000                         0000000109710100       0000000000          201010015840917100917000000000294075630945010181116010100099000100020000000000000000000900000000000000000000000000100068722010610sergio antonio filho                     ANTÙNIA DE OLIVEIRA SILVA      ,569 LOTEAMENTO V   38181222ARAXa          MG SENHOR CAIXA APOS O VENCIMENTO COBRAR J00 000058
1022542123500018830945000316741000000                         0000000109890100       0000000000          201010015841017101017000000000294075630945010181116010100099000100020000000000000000000900000000000000000000000000100068722010610sergio antonio filho                     ANTÙNIA DE OLIVEIRA SILVA      ,569 LOTEAMENTO V   38181222ARAXa          MG SENHOR CAIXA APOS O VENCIMENTO COBRAR J00 000059
1022542123500018830945000316741000000                         0000000109960100       0000000000          201010015841117101117000000000294075630945010181116010100099000100020000000000000000000900000000000000000000000000100068722010610sergio antonio filho                     ANTÙNIA DE OLIVEIRA SILVA      ,569 LOTEAMENTO V   38181222ARAXa          MG SENHOR CAIXA APOS O VENCIMENTO COBRAR J00 000060
1022542123500018830945000316741000000                         0000000110000100       0000000000          201010015841217101217000000000294075630945010181116010100099000100020000000000000000000900000000000000000000000000100068722010610sergio antonio filho                     ANTÙNIA DE OLIVEIRA SILVA      ,569 LOTEAMENTO V   38181222ARAXa          MG SENHOR CAIXA APOS O VENCIMENTO COBRAR J00 000061
1022542123500018830945000316741000000                         0000000111350100       0000000000          201010016360117100117000000000349075630945010181116010100099000100020000000000000000000900000000000000000000000000100043406920691luiz dos reis cardoso                   RUA CONSTANTINO JOSE DA SILVA   ,70  PEDRA AZUL     38181718ARAXA          MG SENHOR CAIXA APOS O VENCIMENTO COBRAR J00 000062
1022542123500018830945000316741000000                         0000000111420100       0000000000          201010016360217100217000000000349075630945010181116010100099000100020000000000000000000900000000000000000000000000100043406920691luiz dos reis cardoso                   RUA CONSTANTINO JOSE DA SILVA   ,70  PEDRA AZUL     38181718ARAXA          MG SENHOR CAIXA APOS O VENCIMENTO COBRAR J00 000063
1022542123500018830945000316741000000                         0000000111500100       0000000000          201010016360317100317000000000349075630945010181116010100099000100020000000000000000000900000000000000000000000000100043406920691luiz dos reis cardoso                   RUA CONSTANTINO JOSE DA SILVA   ,70  PEDRA AZUL     38181718ARAXA          MG SENHOR CAIXA APOS O VENCIMENTO COBRAR J00 000064
1022542123500018830945000316741000000                         0000000111670100       0000000000          201010016360417100417000000000349075630945010181116010100099000100020000000000000000000900000000000000000000000000100043406920691luiz dos reis cardoso                   RUA CONSTANTINO JOSE DA SILVA   ,70  PEDRA AZUL     38181718ARAXA          MG SENHOR CAIXA APOS O VENCIMENTO COBRAR J00 000065
1022542123500018830945000316741000000                         0000000111740100       0000000000          201010016360517100517000000000349075630945010181116010100099000100020000000000000000000900000000000000000000000000100043406920691luiz dos reis cardoso                   RUA CONSTANTINO JOSE DA SILVA   ,70  PEDRA AZUL     38181718ARAXA          MG SENHOR CAIXA APOS O VENCIMENTO COBRAR J00 000066
1022542123500018830945000316741000000                         0000000111810100       0000000000          201010016360617100617000000000349075630945010181116010100099000100020000000000000000000900000000000000000000000000100043406920691luiz dos reis cardoso                   RUA CONSTANTINO JOSE DA SILVA   ,70  PEDRA AZUL     38181718ARAXA          MG SENHOR CAIXA APOS O VENCIMENTO COBRAR J00 000067
1022542123500018830945000316741000000                         0000000111990100       0000000000          201010016360717100717000000000349075630945010181116010100099000100020000000000000000000900000000000000000000000000100043406920691luiz dos reis cardoso                   RUA CONSTANTINO JOSE DA SILVA   ,70  PEDRA AZUL     38181718ARAXA          MG SENHOR CAIXA APOS O VENCIMENTO COBRAR J00 000068
1022542123500018830945000316741000000                         0000000112070100       0000000000          201010016360817100817000000000349075630945010181116010100099000100020000000000000000000900000000000000000000000000100043406920691luiz dos reis cardoso                   RUA CONSTANTINO JOSE DA SILVA   ,70  PEDRA AZUL     38181718ARAXA          MG SENHOR CAIXA APOS O VENCIMENTO COBRAR J00 000069
1022542123500018830945000316741000000                         0000000112140100       0000000000          201010016360917100917000000000349075630945010181116010100099000100020000000000000000000900000000000000000000000000100043406920691luiz dos reis cardoso                   RUA CONSTANTINO JOSE DA SILVA   ,70  PEDRA AZUL     38181718ARAXA          MG SENHOR CAIXA APOS O VENCIMENTO COBRAR J00 000070
1022542123500018830945000316741000000                         0000000112210100       0000000000          201010016361017101017000000000349075630945010181116010100099000100020000000000000000000900000000000000000000000000100043406920691luiz dos reis cardoso                   RUA CONSTANTINO JOSE DA SILVA   ,70  PEDRA AZUL     38181718ARAXA          MG SENHOR CAIXA APOS O VENCIMENTO COBRAR J00 000071
1022542123500018830945000316741000000                         0000000112390100       0000000000          201010016361117101117000000000349075630945010181116010100099000100020000000000000000000900000000000000000000000000100043406920691luiz dos reis cardoso                   RUA CONSTANTINO JOSE DA SILVA   ,70  PEDRA AZUL     38181718ARAXA          MG SENHOR CAIXA APOS O VENCIMENTO COBRAR J00 000072
1022542123500018830945000316741000000                         0000000112460100       0000000000          201010016361217101217000000000349075630945010181116010100099000100020000000000000000000900000000000000000000000000100043406920691luiz dos reis cardoso                   RUA CONSTANTINO JOSE DA SILVA   ,70  PEDRA AZUL     38181718ARAXA          MG SENHOR CAIXA APOS O VENCIMENTO COBRAR J00 000073
1022542123500018830945000316741000000                         0000000112530100       0000000000          201010016380117100117000000000294075630945010181116010100099000100020000000000000000000900000000000000000000000000100048971081600tereza martins da silva                 RUA THEREZA THEODORA DA SILVA   ,360 PEDRA AZUL     38181754ARAXA          MG SENHOR CAIXA APOS O VENCIMENTO COBRAR J00 000074
1022542123500018830945000316741000000                         0000000112600100       0000000000          201010016380217100217000000000294075630945010181116010100099000100020000000000000000000900000000000000000000000000100048971081600tereza martins da silva                 RUA THEREZA THEODORA DA SILVA   ,360 PEDRA AZUL     38181754ARAXA          MG SENHOR CAIXA APOS O VENCIMENTO COBRAR J00 000075
1022542123500018830945000316741000000                         0000000112780100       0000000000          201010016380317100317000000000294075630945010181116010100099000100020000000000000000000900000000000000000000000000100048971081600tereza martins da silva                 RUA THEREZA THEODORA DA SILVA   ,360 PEDRA AZUL     38181754ARAXA          MG SENHOR CAIXA APOS O VENCIMENTO COBRAR J00 000076
1022542123500018830945000316741000000                         0000000112850100       0000000000          201010016380417100417000000000294075630945010181116010100099000100020000000000000000000900000000000000000000000000100048971081600tereza martins da silva                 RUA THEREZA THEODORA DA SILVA   ,360 PEDRA AZUL     38181754ARAXA          MG SENHOR CAIXA APOS O VENCIMENTO COBRAR J00 000077
1022542123500018830945000316741000000                         0000000112920100       0000000000          201010016380517100517000000000294075630945010181116010100099000100020000000000000000000900000000000000000000000000100048971081600tereza martins da silva                 RUA THEREZA THEODORA DA SILVA   ,360 PEDRA AZUL     38181754ARAXA          MG SENHOR CAIXA APOS O VENCIMENTO COBRAR J00 000078
1022542123500018830945000316741000000                         0000000113000100       0000000000          201010016380617100617000000000294075630945010181116010100099000100020000000000000000000900000000000000000000000000100048971081600tereza martins da silva                 RUA THEREZA THEODORA DA SILVA   ,360 PEDRA AZUL     38181754ARAXA          MG SENHOR CAIXA APOS O VENCIMENTO COBRAR J00 000079
1022542123500018830945000316741000000                         0000000113180100       0000000000          201010016380717100717000000000294075630945010181116010100099000100020000000000000000000900000000000000000000000000100048971081600tereza martins da silva                 RUA THEREZA THEODORA DA SILVA   ,360 PEDRA AZUL     38181754ARAXA          MG SENHOR CAIXA APOS O VENCIMENTO COBRAR J00 000080
1022542123500018830945000316741000000                         0000000113250100       0000000000          201010016380817100817000000000294075630945010181116010100099000100020000000000000000000900000000000000000000000000100048971081600tereza martins da silva                 RUA THEREZA THEODORA DA SILVA   ,360 PEDRA AZUL     38181754ARAXA          MG SENHOR CAIXA APOS O VENCIMENTO COBRAR J00 000081
1022542123500018830945000316741000000                         0000000113320100       0000000000          201010016380917100917000000000294075630945010181116010100099000100020000000000000000000900000000000000000000000000100048971081600tereza martins da silva                 RUA THEREZA THEODORA DA SILVA   ,360 PEDRA AZUL     38181754ARAXA          MG SENHOR CAIXA APOS O VENCIMENTO COBRAR J00 000082
1022542123500018830945000316741000000                         0000000113400100       0000000000          201010016381017101017000000000294075630945010181116010100099000100020000000000000000000900000000000000000000000000100048971081600tereza martins da silva                 RUA THEREZA THEODORA DA SILVA   ,360 PEDRA AZUL     38181754ARAXA          MG SENHOR CAIXA APOS O VENCIMENTO COBRAR J00 000083
1022542123500018830945000316741000000                         0000000113570100       0000000000          201010016381117101117000000000294075630945010181116010100099000100020000000000000000000900000000000000000000000000100048971081600tereza martins da silva                 RUA THEREZA THEODORA DA SILVA   ,360 PEDRA AZUL     38181754ARAXA          MG SENHOR CAIXA APOS O VENCIMENTO COBRAR J00 000084
1022542123500018830945000316741000000                         0000000113640100       0000000000          201010016381217101217000000000294075630945010181116010100099000100020000000000000000000900000000000000000000000000100048971081600tereza martins da silva                 RUA THEREZA THEODORA DA SILVA   ,360 PEDRA AZUL     38181754ARAXA          MG SENHOR CAIXA APOS O VENCIMENTO COBRAR J00 000085
1022542123500018830945000316741000000                         0000000113710100       0000000000          201010017120117100117000000000294075630945010181116010100099000100020000000000000000000900000000000000000000000000100067612822687sueli aparecida da silva                SEBASTI„O AFONSECA E SILVA      ,10  VILA SANTA T   38183258ARAXA          MG SENHOR CAIXA APOS O VENCIMENTO COBRAR J00 000086
1022542123500018830945000316741000000                         0000000113890100       0000000000          201010017120217100217000000000294075630945010181116010100099000100020000000000000000000900000000000000000000000000100067612822687sueli aparecida da silva                SEBASTI„O AFONSECA E SILVA      ,10  VILA SANTA T   38183258ARAXA          MG SENHOR CAIXA APOS O VENCIMENTO COBRAR J00 000087
1022542123500018830945000316741000000                         0000000113960100       0000000000          201010017120317100317000000000294075630945010181116010100099000100020000000000000000000900000000000000000000000000100067612822687sueli aparecida da silva                SEBASTI„O AFONSECA E SILVA      ,10  VILA SANTA T   38183258ARAXA          MG SENHOR CAIXA APOS O VENCIMENTO COBRAR J00 000088
1022542123500018830945000316741000000                         0000000114040100       0000000000          201010017120417100417000000000294075630945010181116010100099000100020000000000000000000900000000000000000000000000100067612822687sueli aparecida da silva                SEBASTI„O AFONSECA E SILVA      ,10  VILA SANTA T   38183258ARAXA          MG SENHOR CAIXA APOS O VENCIMENTO COBRAR J00 000089
1022542123500018830945000316741000000                         0000000114110100       0000000000          201010017120517100517000000000294075630945010181116010100099000100020000000000000000000900000000000000000000000000100067612822687sueli aparecida da silva                SEBASTI„O AFONSECA E SILVA      ,10  VILA SANTA T   38183258ARAXA          MG SENHOR CAIXA APOS O VENCIMENTO COBRAR J00 000090
1022542123500018830945000316741000000                         0000000114290100       0000000000          201010017120617100617000000000294075630945010181116010100099000100020000000000000000000900000000000000000000000000100067612822687sueli aparecida da silva                SEBASTI„O AFONSECA E SILVA      ,10  VILA SANTA T   38183258ARAXA          MG SENHOR CAIXA APOS O VENCIMENTO COBRAR J00 000091
1022542123500018830945000316741000000                         0000000114360100       0000000000          201010017120717100717000000000294075630945010181116010100099000100020000000000000000000900000000000000000000000000100067612822687sueli aparecida da silva                SEBASTI„O AFONSECA E SILVA      ,10  VILA SANTA T   38183258ARAXA          MG SENHOR CAIXA APOS O VENCIMENTO COBRAR J00 000092
1022542123500018830945000316741000000                         0000000114430100       0000000000          201010017120817100817000000000294075630945010181116010100099000100020000000000000000000900000000000000000000000000100067612822687sueli aparecida da silva                SEBASTI„O AFONSECA E SILVA      ,10  VILA SANTA T   38183258ARAXA          MG SENHOR CAIXA APOS O VENCIMENTO COBRAR J00 000093
1022542123500018830945000316741000000                         0000000114500100       0000000000          201010017120917100917000000000294075630945010181116010100099000100020000000000000000000900000000000000000000000000100067612822687sueli aparecida da silva                SEBASTI„O AFONSECA E SILVA      ,10  VILA SANTA T   38183258ARAXA          MG SENHOR CAIXA APOS O VENCIMENTO COBRAR J00 000094
1022542123500018830945000316741000000                         0000000114680100       0000000000          201010017121017101017000000000294075630945010181116010100099000100020000000000000000000900000000000000000000000000100067612822687sueli aparecida da silva                SEBASTI„O AFONSECA E SILVA      ,10  VILA SANTA T   38183258ARAXA          MG SENHOR CAIXA APOS O VENCIMENTO COBRAR J00 000095
1022542123500018830945000316741000000                         0000000114750100       0000000000          201010017121117101117000000000294075630945010181116010100099000100020000000000000000000900000000000000000000000000100067612822687sueli aparecida da silva                SEBASTI„O AFONSECA E SILVA      ,10  VILA SANTA T   38183258ARAXA          MG SENHOR CAIXA APOS O VENCIMENTO COBRAR J00 000096
1022542123500018830945000316741000000                         0000000114820100       0000000000          201010017121217101217000000000294075630945010181116010100099000100020000000000000000000900000000000000000000000000100067612822687sueli aparecida da silva                SEBASTI„O AFONSECA E SILVA      ,10  VILA SANTA T   38183258ARAXA          MG SENHOR CAIXA APOS O VENCIMENTO COBRAR J00 000097
1022542123500018830945000316741000000                         0000000114900100       0000000000          201010017220117100117000000000294075630945010181116010100099000100020000000000000000000900000000000000000000000000100003263798600maria de lourdes albino                 RUA OLEGARIA DE ALMEIDA COSTA   ,475 ANA PINTO DE   38181080ARAXA          MG SENHOR CAIXA APOS O VENCIMENTO COBRAR J00 000098
1022542123500018830945000316741000000                         0000000115080100       0000000000          201010017220217100217000000000294075630945010181116010100099000100020000000000000000000900000000000000000000000000100003263798600maria de lourdes albino                 RUA OLEGARIA DE ALMEIDA COSTA   ,475 ANA PINTO DE   38181080ARAXA          MG SENHOR CAIXA APOS O VENCIMENTO COBRAR J00 000099
1022542123500018830945000316741000000                         0000000115150100       0000000000          201010017220317100317000000000294075630945010181116010100099000100020000000000000000000900000000000000000000000000100003263798600maria de lourdes albino                 RUA OLEGARIA DE ALMEIDA COSTA   ,475 ANA PINTO DE   38181080ARAXA          MG SENHOR CAIXA APOS O VENCIMENTO COBRAR J00 000100
1022542123500018830945000316741000000                         0000000115220100       0000000000          201010017220417100417000000000294075630945010181116010100099000100020000000000000000000900000000000000000000000000100003263798600maria de lourdes albino                 RUA OLEGARIA DE ALMEIDA COSTA   ,475 ANA PINTO DE   38181080ARAXA          MG SENHOR CAIXA APOS O VENCIMENTO COBRAR J00 000101
1022542123500018830945000316741000000                         0000000115300100       0000000000          201010017220517100517000000000294075630945010181116010100099000100020000000000000000000900000000000000000000000000100003263798600maria de lourdes albino                 RUA OLEGARIA DE ALMEIDA COSTA   ,475 ANA PINTO DE   38181080ARAXA          MG SENHOR CAIXA APOS O VENCIMENTO COBRAR J00 000102
1022542123500018830945000316741000000                         0000000115470100       0000000000          201010017220617100617000000000294075630945010181116010100099000100020000000000000000000900000000000000000000000000100003263798600maria de lourdes albino                 RUA OLEGARIA DE ALMEIDA COSTA   ,475 ANA PINTO DE   38181080ARAXA          MG SENHOR CAIXA APOS O VENCIMENTO COBRAR J00 000103
1022542123500018830945000316741000000                         0000000115540100       0000000000          201010017220717100717000000000294075630945010181116010100099000100020000000000000000000900000000000000000000000000100003263798600maria de lourdes albino                 RUA OLEGARIA DE ALMEIDA COSTA   ,475 ANA PINTO DE   38181080ARAXA          MG SENHOR CAIXA APOS O VENCIMENTO COBRAR J00 000104
1022542123500018830945000316741000000                         0000000115610100       0000000000          201010017220817100817000000000294075630945010181116010100099000100020000000000000000000900000000000000000000000000100003263798600maria de lourdes albino                 RUA OLEGARIA DE ALMEIDA COSTA   ,475 ANA PINTO DE   38181080ARAXA          MG SENHOR CAIXA APOS O VENCIMENTO COBRAR J00 000105
1022542123500018830945000316741000000                         0000000115790100       0000000000          201010017220917100917000000000294075630945010181116010100099000100020000000000000000000900000000000000000000000000100003263798600maria de lourdes albino                 RUA OLEGARIA DE ALMEIDA COSTA   ,475 ANA PINTO DE   38181080ARAXA          MG SENHOR CAIXA APOS O VENCIMENTO COBRAR J00 000106
1022542123500018830945000316741000000                         0000000115860100       0000000000          201010017221017101017000000000294075630945010181116010100099000100020000000000000000000900000000000000000000000000100003263798600maria de lourdes albino                 RUA OLEGARIA DE ALMEIDA COSTA   ,475 ANA PINTO DE   38181080ARAXA          MG SENHOR CAIXA APOS O VENCIMENTO COBRAR J00 000107
1022542123500018830945000316741000000                         0000000115930100       0000000000          201010017221117101117000000000294075630945010181116010100099000100020000000000000000000900000000000000000000000000100003263798600maria de lourdes albino                 RUA OLEGARIA DE ALMEIDA COSTA   ,475 ANA PINTO DE   38181080ARAXA          MG SENHOR CAIXA APOS O VENCIMENTO COBRAR J00 000108
1022542123500018830945000316741000000                         0000000116010100       0000000000          201010017221217101217000000000294075630945010181116010100099000100020000000000000000000900000000000000000000000000100003263798600maria de lourdes albino                 RUA OLEGARIA DE ALMEIDA COSTA   ,475 ANA PINTO DE   38181080ARAXA          MG SENHOR CAIXA APOS O VENCIMENTO COBRAR J00 000109
1022542123500018830945000316741000000                         0000000116190100       0000000000          201010017340117100117000000000294075630945010181116010100099000100020000000000000000000900000000000000000000000000100063006677668valdomiro joao dos santos junior        RUA BRIGIDO DE MELO FILHO       ,539 BOM JESUS      38181022ARAXA          MG SENHOR CAIXA APOS O VENCIMENTO COBRAR J00 000110
1022542123500018830945000316741000000                         0000000116260100       0000000000          201010017340217100217000000000294075630945010181116010100099000100020000000000000000000900000000000000000000000000100063006677668valdomiro joao dos santos junior        RUA BRIGIDO DE MELO FILHO       ,539 BOM JESUS      38181022ARAXA          MG SENHOR CAIXA APOS O VENCIMENTO COBRAR J00 000111
1022542123500018830945000316741000000                         0000000116330100       0000000000          201010017340317100317000000000294075630945010181116010100099000100020000000000000000000900000000000000000000000000100063006677668valdomiro joao dos santos junior        RUA BRIGIDO DE MELO FILHO       ,539 BOM JESUS      38181022ARAXA          MG SENHOR CAIXA APOS O VENCIMENTO COBRAR J00 000112
1022542123500018830945000316741000000                         0000000116400100       0000000000          201010017340417100417000000000294075630945010181116010100099000100020000000000000000000900000000000000000000000000100063006677668valdomiro joao dos santos junior        RUA BRIGIDO DE MELO FILHO       ,539 BOM JESUS      38181022ARAXA          MG SENHOR CAIXA APOS O VENCIMENTO COBRAR J00 000113
1022542123500018830945000316741000000                         0000000116580100       0000000000          201010017340517100517000000000294075630945010181116010100099000100020000000000000000000900000000000000000000000000100063006677668valdomiro joao dos santos junior        RUA BRIGIDO DE MELO FILHO       ,539 BOM JESUS      38181022ARAXA          MG SENHOR CAIXA APOS O VENCIMENTO COBRAR J00 000114
1022542123500018830945000316741000000                         0000000116650100       0000000000          201010017340617100617000000000294075630945010181116010100099000100020000000000000000000900000000000000000000000000100063006677668valdomiro joao dos santos junior        RUA BRIGIDO DE MELO FILHO       ,539 BOM JESUS      38181022ARAXA          MG SENHOR CAIXA APOS O VENCIMENTO COBRAR J00 000115
1022542123500018830945000316741000000                         0000000116720100       0000000000          201010017340717100717000000000294075630945010181116010100099000100020000000000000000000900000000000000000000000000100063006677668valdomiro joao dos santos junior        RUA BRIGIDO DE MELO FILHO       ,539 BOM JESUS      38181022ARAXA          MG SENHOR CAIXA APOS O VENCIMENTO COBRAR J00 000116
1022542123500018830945000316741000000                         0000000116800100       0000000000          201010017340817100817000000000294075630945010181116010100099000100020000000000000000000900000000000000000000000000100063006677668valdomiro joao dos santos junior        RUA BRIGIDO DE MELO FILHO       ,539 BOM JESUS      38181022ARAXA          MG SENHOR CAIXA APOS O VENCIMENTO COBRAR J00 000117
1022542123500018830945000316741000000                         0000000116970100       0000000000          201010017340917100917000000000294075630945010181116010100099000100020000000000000000000900000000000000000000000000100063006677668valdomiro joao dos santos junior        RUA BRIGIDO DE MELO FILHO       ,539 BOM JESUS      38181022ARAXA          MG SENHOR CAIXA APOS O VENCIMENTO COBRAR J00 000118
1022542123500018830945000316741000000                         0000000117050100       0000000000          201010017341017101017000000000294075630945010181116010100099000100020000000000000000000900000000000000000000000000100063006677668valdomiro joao dos santos junior        RUA BRIGIDO DE MELO FILHO       ,539 BOM JESUS      38181022ARAXA          MG SENHOR CAIXA APOS O VENCIMENTO COBRAR J00 000119
1022542123500018830945000316741000000                         0000000117120100       0000000000          201010017341117101117000000000294075630945010181116010100099000100020000000000000000000900000000000000000000000000100063006677668valdomiro joao dos santos junior        RUA BRIGIDO DE MELO FILHO       ,539 BOM JESUS      38181022ARAXA          MG SENHOR CAIXA APOS O VENCIMENTO COBRAR J00 000120
1022542123500018830945000316741000000                         0000000117200100       0000000000          201010017341217101217000000000294075630945010181116010100099000100020000000000000000000900000000000000000000000000100063006677668valdomiro joao dos santos junior        RUA BRIGIDO DE MELO FILHO       ,539 BOM JESUS      38181022ARAXA          MG SENHOR CAIXA APOS O VENCIMENTO COBRAR J00 000121
1022542123500018830945000316741000000                         0000000117370100       0000000000          201010017410117100117000000000294075630945010181116010100099000100020000000000000000000900000000000000000000000000100005809801625leonardo luiz de castro                 RUA TOTONHO PEREIRA             ,370 SANTO ANTONI   38182078ARAXA          MG SENHOR CAIXA APOS O VENCIMENTO COBRAR J00 000122
1022542123500018830945000316741000000                         0000000117440100       0000000000          201010017410217100217000000000294075630945010181116010100099000100020000000000000000000900000000000000000000000000100005809801625leonardo luiz de castro                 RUA TOTONHO PEREIRA             ,370 SANTO ANTONI   38182078ARAXA          MG SENHOR CAIXA APOS O VENCIMENTO COBRAR J00 000123
1022542123500018830945000316741000000                         0000000117510100       0000000000          201010017410317100317000000000294075630945010181116010100099000100020000000000000000000900000000000000000000000000100005809801625leonardo luiz de castro                 RUA TOTONHO PEREIRA             ,370 SANTO ANTONI   38182078ARAXA          MG SENHOR CAIXA APOS O VENCIMENTO COBRAR J00 000124
1022542123500018830945000316741000000                         0000000117690100       0000000000          201010017410417100417000000000294075630945010181116010100099000100020000000000000000000900000000000000000000000000100005809801625leonardo luiz de castro                 RUA TOTONHO PEREIRA             ,370 SANTO ANTONI   38182078ARAXA          MG SENHOR CAIXA APOS O VENCIMENTO COBRAR J00 000125
1022542123500018830945000316741000000                         0000000117760100       0000000000          201010017410517100517000000000294075630945010181116010100099000100020000000000000000000900000000000000000000000000100005809801625leonardo luiz de castro                 RUA TOTONHO PEREIRA             ,370 SANTO ANTONI   38182078ARAXA          MG SENHOR CAIXA APOS O VENCIMENTO COBRAR J00 000126
1022542123500018830945000316741000000                         0000000117830100       0000000000          201010017410617100617000000000294075630945010181116010100099000100020000000000000000000900000000000000000000000000100005809801625leonardo luiz de castro                 RUA TOTONHO PEREIRA             ,370 SANTO ANTONI   38182078ARAXA          MG SENHOR CAIXA APOS O VENCIMENTO COBRAR J00 000127
1022542123500018830945000316741000000                         0000000117900100       0000000000          201010017410717100717000000000294075630945010181116010100099000100020000000000000000000900000000000000000000000000100005809801625leonardo luiz de castro                 RUA TOTONHO PEREIRA             ,370 SANTO ANTONI   38182078ARAXA          MG SENHOR CAIXA APOS O VENCIMENTO COBRAR J00 000128
1022542123500018830945000316741000000                         0000000118090100       0000000000          201010017410817100817000000000294075630945010181116010100099000100020000000000000000000900000000000000000000000000100005809801625leonardo luiz de castro                 RUA TOTONHO PEREIRA             ,370 SANTO ANTONI   38182078ARAXA          MG SENHOR CAIXA APOS O VENCIMENTO COBRAR J00 000129
1022542123500018830945000316741000000                         0000000118160100       0000000000          201010017410917100917000000000294075630945010181116010100099000100020000000000000000000900000000000000000000000000100005809801625leonardo luiz de castro                 RUA TOTONHO PEREIRA             ,370 SANTO ANTONI   38182078ARAXA          MG SENHOR CAIXA APOS O VENCIMENTO COBRAR J00 000130
1022542123500018830945000316741000000                         0000000118230100       0000000000          201010017411017101017000000000294075630945010181116010100099000100020000000000000000000900000000000000000000000000100005809801625leonardo luiz de castro                 RUA TOTONHO PEREIRA             ,370 SANTO ANTONI   38182078ARAXA          MG SENHOR CAIXA APOS O VENCIMENTO COBRAR J00 000131
1022542123500018830945000316741000000                         0000000118300100       0000000000          201010017411117101117000000000294075630945010181116010100099000100020000000000000000000900000000000000000000000000100005809801625leonardo luiz de castro                 RUA TOTONHO PEREIRA             ,370 SANTO ANTONI   38182078ARAXA          MG SENHOR CAIXA APOS O VENCIMENTO COBRAR J00 000132
1022542123500018830945000316741000000                         0000000118480100       0000000000          201010017411217101217000000000294075630945010181116010100099000100020000000000000000000900000000000000000000000000100005809801625leonardo luiz de castro                 RUA TOTONHO PEREIRA             ,370 SANTO ANTONI   38182078ARAXA          MG SENHOR CAIXA APOS O VENCIMENTO COBRAR J00 000133
1022542123500018830945000316741000000                         0000000118550100       0000000000          201010017670117100117000000000294075630945010181116010100099000100020000000000000000000900000000000000000000000000100003147847640maria da gloria cearense teixeira       RUA SEBASTIAO SANTIAGO          ,30  VILA FERTIZA   38184234ARAXA          MG SENHOR CAIXA APOS O VENCIMENTO COBRAR J00 000134
1022542123500018830945000316741000000                         0000000118620100       0000000000          201010017670217100217000000000294075630945010181116010100099000100020000000000000000000900000000000000000000000000100003147847640maria da gloria cearense teixeira       RUA SEBASTIAO SANTIAGO          ,30  VILA FERTIZA   38184234ARAXA          MG SENHOR CAIXA APOS O VENCIMENTO COBRAR J00 000135
1022542123500018830945000316741000000                         0000000118700100       0000000000          201010017670317100317000000000294075630945010181116010100099000100020000000000000000000900000000000000000000000000100003147847640maria da gloria cearense teixeira       RUA SEBASTIAO SANTIAGO          ,30  VILA FERTIZA   38184234ARAXA          MG SENHOR CAIXA APOS O VENCIMENTO COBRAR J00 000136
1022542123500018830945000316741000000                         0000000118870100       0000000000          201010017670417100417000000000294075630945010181116010100099000100020000000000000000000900000000000000000000000000100003147847640maria da gloria cearense teixeira       RUA SEBASTIAO SANTIAGO          ,30  VILA FERTIZA   38184234ARAXA          MG SENHOR CAIXA APOS O VENCIMENTO COBRAR J00 000137
1022542123500018830945000316741000000                         0000000118940100       0000000000          201010017670517100517000000000294075630945010181116010100099000100020000000000000000000900000000000000000000000000100003147847640maria da gloria cearense teixeira       RUA SEBASTIAO SANTIAGO          ,30  VILA FERTIZA   38184234ARAXA          MG SENHOR CAIXA APOS O VENCIMENTO COBRAR J00 000138
1022542123500018830945000316741000000                         0000000119020100       0000000000          201010017670617100617000000000294075630945010181116010100099000100020000000000000000000900000000000000000000000000100003147847640maria da gloria cearense teixeira       RUA SEBASTIAO SANTIAGO          ,30  VILA FERTIZA   38184234ARAXA          MG SENHOR CAIXA APOS O VENCIMENTO COBRAR J00 000139
1022542123500018830945000316741000000                         0000000119100100       0000000000          201010017670717100717000000000294075630945010181116010100099000100020000000000000000000900000000000000000000000000100003147847640maria da gloria cearense teixeira       RUA SEBASTIAO SANTIAGO          ,30  VILA FERTIZA   38184234ARAXA          MG SENHOR CAIXA APOS O VENCIMENTO COBRAR J00 000140
1022542123500018830945000316741000000                         0000000119270100       0000000000          201010017670817100817000000000294075630945010181116010100099000100020000000000000000000900000000000000000000000000100003147847640maria da gloria cearense teixeira       RUA SEBASTIAO SANTIAGO          ,30  VILA FERTIZA   38184234ARAXA          MG SENHOR CAIXA APOS O VENCIMENTO COBRAR J00 000141
1022542123500018830945000316741000000                         0000000119340100       0000000000          201010017670917100917000000000294075630945010181116010100099000100020000000000000000000900000000000000000000000000100003147847640maria da gloria cearense teixeira       RUA SEBASTIAO SANTIAGO          ,30  VILA FERTIZA   38184234ARAXA          MG SENHOR CAIXA APOS O VENCIMENTO COBRAR J00 000142
1022542123500018830945000316741000000                         0000000119410100       0000000000          201010017671017101017000000000294075630945010181116010100099000100020000000000000000000900000000000000000000000000100003147847640maria da gloria cearense teixeira       RUA SEBASTIAO SANTIAGO          ,30  VILA FERTIZA   38184234ARAXA          MG SENHOR CAIXA APOS O VENCIMENTO COBRAR J00 000143
1022542123500018830945000316741000000                         0000000119590100       0000000000          201010017671117101117000000000294075630945010181116010100099000100020000000000000000000900000000000000000000000000100003147847640maria da gloria cearense teixeira       RUA SEBASTIAO SANTIAGO          ,30  VILA FERTIZA   38184234ARAXA          MG SENHOR CAIXA APOS O VENCIMENTO COBRAR J00 000144
1022542123500018830945000316741000000                         0000000119660100       0000000000          201010017671217101217000000000294075630945010181116010100099000100020000000000000000000900000000000000000000000000100003147847640maria da gloria cearense teixeira       RUA SEBASTIAO SANTIAGO          ,30  VILA FERTIZA   38184234ARAXA          MG SENHOR CAIXA APOS O VENCIMENTO COBRAR J00 000145
1022542123500018830945000316741000000                         0000000119730100       0000000000          201010017750117100117000000000294075630945010181116010100099000100020000000000000000000900000000000000000000000000100027298434691eva da abadia da paixao                 RUA JOAQUIM ALVES BARCELOS      ,212 VILA GUIMARA   38183142ARAXA          MG SENHOR CAIXA APOS O VENCIMENTO COBRAR J00 000146
1022542123500018830945000316741000000                         0000000119800100       0000000000          201010017750217100217000000000294075630945010181116010100099000100020000000000000000000900000000000000000000000000100027298434691eva da abadia da paixao                 RUA JOAQUIM ALVES BARCELOS      ,212 VILA GUIMARA   38183142ARAXA          MG SENHOR CAIXA APOS O VENCIMENTO COBRAR J00 000147
1022542123500018830945000316741000000                         0000000119980100       0000000000          201010017750317100317000000000294075630945010181116010100099000100020000000000000000000900000000000000000000000000100027298434691eva da abadia da paixao                 RUA JOAQUIM ALVES BARCELOS      ,212 VILA GUIMARA   38183142ARAXA          MG SENHOR CAIXA APOS O VENCIMENTO COBRAR J00 000148
1022542123500018830945000316741000000                         0000000120010100       0000000000          201010017750417100417000000000294075630945010181116010100099000100020000000000000000000900000000000000000000000000100027298434691eva da abadia da paixao                 RUA JOAQUIM ALVES BARCELOS      ,212 VILA GUIMARA   38183142ARAXA          MG SENHOR CAIXA APOS O VENCIMENTO COBRAR J00 000149
1022542123500018830945000316741000000                         0000000120190100       0000000000          201010017750517100517000000000294075630945010181116010100099000100020000000000000000000900000000000000000000000000100027298434691eva da abadia da paixao                 RUA JOAQUIM ALVES BARCELOS      ,212 VILA GUIMARA   38183142ARAXA          MG SENHOR CAIXA APOS O VENCIMENTO COBRAR J00 000150
1022542123500018830945000316741000000                         0000000120260100       0000000000          201010017750617100617000000000294075630945010181116010100099000100020000000000000000000900000000000000000000000000100027298434691eva da abadia da paixao                 RUA JOAQUIM ALVES BARCELOS      ,212 VILA GUIMARA   38183142ARAXA          MG SENHOR CAIXA APOS O VENCIMENTO COBRAR J00 000151
1022542123500018830945000316741000000                         0000000120330100       0000000000          201010017750717100717000000000294075630945010181116010100099000100020000000000000000000900000000000000000000000000100027298434691eva da abadia da paixao                 RUA JOAQUIM ALVES BARCELOS      ,212 VILA GUIMARA   38183142ARAXA          MG SENHOR CAIXA APOS O VENCIMENTO COBRAR J00 000152
1022542123500018830945000316741000000                         0000000120400100       0000000000          201010017750817100817000000000294075630945010181116010100099000100020000000000000000000900000000000000000000000000100027298434691eva da abadia da paixao                 RUA JOAQUIM ALVES BARCELOS      ,212 VILA GUIMARA   38183142ARAXA          MG SENHOR CAIXA APOS O VENCIMENTO COBRAR J00 000153
1022542123500018830945000316741000000                         0000000120580100       0000000000          201010017750917100917000000000294075630945010181116010100099000100020000000000000000000900000000000000000000000000100027298434691eva da abadia da paixao                 RUA JOAQUIM ALVES BARCELOS      ,212 VILA GUIMARA   38183142ARAXA          MG SENHOR CAIXA APOS O VENCIMENTO COBRAR J00 000154
1022542123500018830945000316741000000                         0000000120650100       0000000000          201010017751017101017000000000294075630945010181116010100099000100020000000000000000000900000000000000000000000000100027298434691eva da abadia da paixao                 RUA JOAQUIM ALVES BARCELOS      ,212 VILA GUIMARA   38183142ARAXA          MG SENHOR CAIXA APOS O VENCIMENTO COBRAR J00 000155
1022542123500018830945000316741000000                         0000000120720100       0000000000          201010017751117101117000000000294075630945010181116010100099000100020000000000000000000900000000000000000000000000100027298434691eva da abadia da paixao                 RUA JOAQUIM ALVES BARCELOS      ,212 VILA GUIMARA   38183142ARAXA          MG SENHOR CAIXA APOS O VENCIMENTO COBRAR J00 000156
1022542123500018830945000316741000000                         0000000120800100       0000000000          201010017751217101217000000000294075630945010181116010100099000100020000000000000000000900000000000000000000000000100027298434691eva da abadia da paixao                 RUA JOAQUIM ALVES BARCELOS      ,212 VILA GUIMARA   38183142ARAXA          MG SENHOR CAIXA APOS O VENCIMENTO COBRAR J00 000157
1022542123500018830945000316741000000                         0000000132960100       0000000000          201010022690117100117000000000349075630945010211116010100099000100020000000000000000000900000000000000000000000000100063073072691maria aparecida da silva                RUA JOSE OLYNTHO DE CASTRO      ,155 SANTA MARIA    38181246ARAXA          MG SENHOR CAIXA APOS O VENCIMENTO COBRAR J00 000158
1022542123500018830945000316741000000                         0000000133040100       0000000000          201010022690217100217000000000349075630945010211116010100099000100020000000000000000000900000000000000000000000000100063073072691maria aparecida da silva                RUA JOSE OLYNTHO DE CASTRO      ,155 SANTA MARIA    38181246ARAXA          MG SENHOR CAIXA APOS O VENCIMENTO COBRAR J00 000159
1022542123500018830945000316741000000                         0000000133110100       0000000000          201010022690317100317000000000349075630945010211116010100099000100020000000000000000000900000000000000000000000000100063073072691maria aparecida da silva                RUA JOSE OLYNTHO DE CASTRO      ,155 SANTA MARIA    38181246ARAXA          MG SENHOR CAIXA APOS O VENCIMENTO COBRAR J00 000160
1022542123500018830945000316741000000                         0000000133290100       0000000000          201010022690417100417000000000349075630945010211116010100099000100020000000000000000000900000000000000000000000000100063073072691maria aparecida da silva                RUA JOSE OLYNTHO DE CASTRO      ,155 SANTA MARIA    38181246ARAXA          MG SENHOR CAIXA APOS O VENCIMENTO COBRAR J00 000161
1022542123500018830945000316741000000                         0000000133360100       0000000000          201010022690517100517000000000349075630945010211116010100099000100020000000000000000000900000000000000000000000000100063073072691maria aparecida da silva                RUA JOSE OLYNTHO DE CASTRO      ,155 SANTA MARIA    38181246ARAXA          MG SENHOR CAIXA APOS O VENCIMENTO COBRAR J00 000162
1022542123500018830945000316741000000                         0000000133430100       0000000000          201010022690617100617000000000349075630945010211116010100099000100020000000000000000000900000000000000000000000000100063073072691maria aparecida da silva                RUA JOSE OLYNTHO DE CASTRO      ,155 SANTA MARIA    38181246ARAXA          MG SENHOR CAIXA APOS O VENCIMENTO COBRAR J00 000163
1022542123500018830945000316741000000                         0000000133500100       0000000000          201010022690717100717000000000349075630945010211116010100099000100020000000000000000000900000000000000000000000000100063073072691maria aparecida da silva                RUA JOSE OLYNTHO DE CASTRO      ,155 SANTA MARIA    38181246ARAXA          MG SENHOR CAIXA APOS O VENCIMENTO COBRAR J00 000164
1022542123500018830945000316741000000                         0000000133680100       0000000000          201010022690817100817000000000349075630945010211116010100099000100020000000000000000000900000000000000000000000000100063073072691maria aparecida da silva                RUA JOSE OLYNTHO DE CASTRO      ,155 SANTA MARIA    38181246ARAXA          MG SENHOR CAIXA APOS O VENCIMENTO COBRAR J00 000165
1022542123500018830945000316741000000                         0000000133750100       0000000000          201010022690917100917000000000349075630945010211116010100099000100020000000000000000000900000000000000000000000000100063073072691maria aparecida da silva                RUA JOSE OLYNTHO DE CASTRO      ,155 SANTA MARIA    38181246ARAXA          MG SENHOR CAIXA APOS O VENCIMENTO COBRAR J00 000166
1022542123500018830945000316741000000                         0000000133820100       0000000000          201010022691017101017000000000349075630945010211116010100099000100020000000000000000000900000000000000000000000000100063073072691maria aparecida da silva                RUA JOSE OLYNTHO DE CASTRO      ,155 SANTA MARIA    38181246ARAXA          MG SENHOR CAIXA APOS O VENCIMENTO COBRAR J00 000167
1022542123500018830945000316741000000                         0000000133900100       0000000000          201010022691117101117000000000349075630945010211116010100099000100020000000000000000000900000000000000000000000000100063073072691maria aparecida da silva                RUA JOSE OLYNTHO DE CASTRO      ,155 SANTA MARIA    38181246ARAXA          MG SENHOR CAIXA APOS O VENCIMENTO COBRAR J00 000168
1022542123500018830945000316741000000                         0000000134080100       0000000000          201010022691217101217000000000349075630945010211116010100099000100020000000000000000000900000000000000000000000000100063073072691maria aparecida da silva                RUA JOSE OLYNTHO DE CASTRO      ,155 SANTA MARIA    38181246ARAXA          MG SENHOR CAIXA APOS O VENCIMENTO COBRAR J00 000169
1022542123500018830945000316741000000                         0000000134150100       0000000000          201010022730117100117000000000349075630945010211116010100099000100020000000000000000000900000000000000000000000000100081441630600maria aparecida dias                    RUA AURESLINA MARIA DE AVILA    ,13  DONA BEJA      38183416ARAXA          MG SENHOR CAIXA APOS O VENCIMENTO COBRAR J00 000170
1022542123500018830945000316741000000                         0000000134220100       0000000000          201010022730217100217000000000349075630945010211116010100099000100020000000000000000000900000000000000000000000000100081441630600maria aparecida dias                    RUA AURESLINA MARIA DE AVILA    ,13  DONA BEJA      38183416ARAXA          MG SENHOR CAIXA APOS O VENCIMENTO COBRAR J00 000171
1022542123500018830945000316741000000                         0000000134300100       0000000000          201010022730317100317000000000349075630945010211116010100099000100020000000000000000000900000000000000000000000000100081441630600maria aparecida dias                    RUA AURESLINA MARIA DE AVILA    ,13  DONA BEJA      38183416ARAXA          MG SENHOR CAIXA APOS O VENCIMENTO COBRAR J00 000172
1022542123500018830945000316741000000                         0000000134470100       0000000000          201010022730417100417000000000349075630945010211116010100099000100020000000000000000000900000000000000000000000000100081441630600maria aparecida dias                    RUA AURESLINA MARIA DE AVILA    ,13  DONA BEJA      38183416ARAXA          MG SENHOR CAIXA APOS O VENCIMENTO COBRAR J00 000173
1022542123500018830945000316741000000                         0000000134540100       0000000000          201010022730517100517000000000349075630945010211116010100099000100020000000000000000000900000000000000000000000000100081441630600maria aparecida dias                    RUA AURESLINA MARIA DE AVILA    ,13  DONA BEJA      38183416ARAXA          MG SENHOR CAIXA APOS O VENCIMENTO COBRAR J00 000174
1022542123500018830945000316741000000                         0000000134610100       0000000000          201010022730617100617000000000349075630945010211116010100099000100020000000000000000000900000000000000000000000000100081441630600maria aparecida dias                    RUA AURESLINA MARIA DE AVILA    ,13  DONA BEJA      38183416ARAXA          MG SENHOR CAIXA APOS O VENCIMENTO COBRAR J00 000175
1022542123500018830945000316741000000                         0000000134790100       0000000000          201010022730717100717000000000349075630945010211116010100099000100020000000000000000000900000000000000000000000000100081441630600maria aparecida dias                    RUA AURESLINA MARIA DE AVILA    ,13  DONA BEJA      38183416ARAXA          MG SENHOR CAIXA APOS O VENCIMENTO COBRAR J00 000176
1022542123500018830945000316741000000                         0000000134860100       0000000000          201010022730817100817000000000349075630945010211116010100099000100020000000000000000000900000000000000000000000000100081441630600maria aparecida dias                    RUA AURESLINA MARIA DE AVILA    ,13  DONA BEJA      38183416ARAXA          MG SENHOR CAIXA APOS O VENCIMENTO COBRAR J00 000177
1022542123500018830945000316741000000                         0000000134930100       0000000000          201010022730917100917000000000349075630945010211116010100099000100020000000000000000000900000000000000000000000000100081441630600maria aparecida dias                    RUA AURESLINA MARIA DE AVILA    ,13  DONA BEJA      38183416ARAXA          MG SENHOR CAIXA APOS O VENCIMENTO COBRAR J00 000178
1022542123500018830945000316741000000                         0000000135010100       0000000000          201010022731017101017000000000349075630945010211116010100099000100020000000000000000000900000000000000000000000000100081441630600maria aparecida dias                    RUA AURESLINA MARIA DE AVILA    ,13  DONA BEJA      38183416ARAXA          MG SENHOR CAIXA APOS O VENCIMENTO COBRAR J00 000179
1022542123500018830945000316741000000                         0000000135190100       0000000000          201010022731117101117000000000349075630945010211116010100099000100020000000000000000000900000000000000000000000000100081441630600maria aparecida dias                    RUA AURESLINA MARIA DE AVILA    ,13  DONA BEJA      38183416ARAXA          MG SENHOR CAIXA APOS O VENCIMENTO COBRAR J00 000180
1022542123500018830945000316741000000                         0000000135260100       0000000000          201010022731217101217000000000349075630945010211116010100099000100020000000000000000000900000000000000000000000000100081441630600maria aparecida dias                    RUA AURESLINA MARIA DE AVILA    ,13  DONA BEJA      38183416ARAXA          MG SENHOR CAIXA APOS O VENCIMENTO COBRAR J00 000181
1022542123500018830945000316741000000                         0000000135330100       0000000000          201010022820117100117000000000294075630945010211116010100099000100020000000000000000000900000000000000000000000000100071880593653irani dos reis domingues                MANUEL GONSALVES                ,200 SAO DOMINGOS   38180000ARAXA          MG SENHOR CAIXA APOS O VENCIMENTO COBRAR J00 000182
1022542123500018830945000316741000000                         0000000135400100       0000000000          201010022820217100217000000000294075630945010211116010100099000100020000000000000000000900000000000000000000000000100071880593653irani dos reis domingues                MANUEL GONSALVES                ,200 SAO DOMINGOS   38180000ARAXA          MG SENHOR CAIXA APOS O VENCIMENTO COBRAR J00 000183
1022542123500018830945000316741000000                         0000000135580100       0000000000          201010022820317100317000000000294075630945010211116010100099000100020000000000000000000900000000000000000000000000100071880593653irani dos reis domingues                MANUEL GONSALVES                ,200 SAO DOMINGOS   38180000ARAXA          MG SENHOR CAIXA APOS O VENCIMENTO COBRAR J00 000184
1022542123500018830945000316741000000                         0000000135650100       0000000000          201010022820417100417000000000294075630945010211116010100099000100020000000000000000000900000000000000000000000000100071880593653irani dos reis domingues                MANUEL GONSALVES                ,200 SAO DOMINGOS   38180000ARAXA          MG SENHOR CAIXA APOS O VENCIMENTO COBRAR J00 000185
1022542123500018830945000316741000000                         0000000135720100       0000000000          201010022820517100517000000000294075630945010211116010100099000100020000000000000000000900000000000000000000000000100071880593653irani dos reis domingues                MANUEL GONSALVES                ,200 SAO DOMINGOS   38180000ARAXA          MG SENHOR CAIXA APOS O VENCIMENTO COBRAR J00 000186
1022542123500018830945000316741000000                         0000000135800100       0000000000          201010022820617100617000000000294075630945010211116010100099000100020000000000000000000900000000000000000000000000100071880593653irani dos reis domingues                MANUEL GONSALVES                ,200 SAO DOMINGOS   38180000ARAXA          MG SENHOR CAIXA APOS O VENCIMENTO COBRAR J00 000187
1022542123500018830945000316741000000                         0000000135970100       0000000000          201010022820717100717000000000294075630945010211116010100099000100020000000000000000000900000000000000000000000000100071880593653irani dos reis domingues                MANUEL GONSALVES                ,200 SAO DOMINGOS   38180000ARAXA          MG SENHOR CAIXA APOS O VENCIMENTO COBRAR J00 000188
1022542123500018830945000316741000000                         0000000136050100       0000000000          201010022820817100817000000000294075630945010211116010100099000100020000000000000000000900000000000000000000000000100071880593653irani dos reis domingues                MANUEL GONSALVES                ,200 SAO DOMINGOS   38180000ARAXA          MG SENHOR CAIXA APOS O VENCIMENTO COBRAR J00 000189
1022542123500018830945000316741000000                         0000000136120100       0000000000          201010022820917100917000000000294075630945010211116010100099000100020000000000000000000900000000000000000000000000100071880593653irani dos reis domingues                MANUEL GONSALVES                ,200 SAO DOMINGOS   38180000ARAXA          MG SENHOR CAIXA APOS O VENCIMENTO COBRAR J00 000190
1022542123500018830945000316741000000                         0000000136200100       0000000000          201010022821017101017000000000294075630945010211116010100099000100020000000000000000000900000000000000000000000000100071880593653irani dos reis domingues                MANUEL GONSALVES                ,200 SAO DOMINGOS   38180000ARAXA          MG SENHOR CAIXA APOS O VENCIMENTO COBRAR J00 000191
1022542123500018830945000316741000000                         0000000136370100       0000000000          201010022821117101117000000000294075630945010211116010100099000100020000000000000000000900000000000000000000000000100071880593653irani dos reis domingues                MANUEL GONSALVES                ,200 SAO DOMINGOS   38180000ARAXA          MG SENHOR CAIXA APOS O VENCIMENTO COBRAR J00 000192
1022542123500018830945000316741000000                         0000000136440100       0000000000          201010022821217101217000000000294075630945010211116010100099000100020000000000000000000900000000000000000000000000100071880593653irani dos reis domingues                MANUEL GONSALVES                ,200 SAO DOMINGOS   38180000ARAXA          MG SENHOR CAIXA APOS O VENCIMENTO COBRAR J00 000193
1022542123500018830945000316741000000                         0000000136510100       0000000000          201010023040117100117000000000349075630945010211116010100099000100020000000000000000000900000000000000000000000000100042253535672belchiolina dos reis martins            RUA PIAUI                       ,618 SAO GERALDO    38180082ARAXA          MG SENHOR CAIXA APOS O VENCIMENTO COBRAR J00 000194
1022542123500018830945000316741000000                         0000000136690100       0000000000          201010023040217100217000000000349075630945010211116010100099000100020000000000000000000900000000000000000000000000100042253535672belchiolina dos reis martins            RUA PIAUI                       ,618 SAO GERALDO    38180082ARAXA          MG SENHOR CAIXA APOS O VENCIMENTO COBRAR J00 000195
1022542123500018830945000316741000000                         0000000136760100       0000000000          201010023040317100317000000000349075630945010211116010100099000100020000000000000000000900000000000000000000000000100042253535672belchiolina dos reis martins            RUA PIAUI                       ,618 SAO GERALDO    38180082ARAXA          MG SENHOR CAIXA APOS O VENCIMENTO COBRAR J00 000196
1022542123500018830945000316741000000                         0000000136830100       0000000000          201010023040417100417000000000349075630945010211116010100099000100020000000000000000000900000000000000000000000000100042253535672belchiolina dos reis martins            RUA PIAUI                       ,618 SAO GERALDO    38180082ARAXA          MG SENHOR CAIXA APOS O VENCIMENTO COBRAR J00 000197
1022542123500018830945000316741000000                         0000000136900100       0000000000          201010023040517100517000000000349075630945010211116010100099000100020000000000000000000900000000000000000000000000100042253535672belchiolina dos reis martins            RUA PIAUI                       ,618 SAO GERALDO    38180082ARAXA          MG SENHOR CAIXA APOS O VENCIMENTO COBRAR J00 000198
1022542123500018830945000316741000000                         0000000137090100       0000000000          201010023040617100617000000000349075630945010211116010100099000100020000000000000000000900000000000000000000000000100042253535672belchiolina dos reis martins            RUA PIAUI                       ,618 SAO GERALDO    38180082ARAXA          MG SENHOR CAIXA APOS O VENCIMENTO COBRAR J00 000199
1022542123500018830945000316741000000                         0000000137160100       0000000000          201010023040717100717000000000349075630945010211116010100099000100020000000000000000000900000000000000000000000000100042253535672belchiolina dos reis martins            RUA PIAUI                       ,618 SAO GERALDO    38180082ARAXA          MG SENHOR CAIXA APOS O VENCIMENTO COBRAR J00 000200
1022542123500018830945000316741000000                         0000000137230100       0000000000          201010023040817100817000000000349075630945010211116010100099000100020000000000000000000900000000000000000000000000100042253535672belchiolina dos reis martins            RUA PIAUI                       ,618 SAO GERALDO    38180082ARAXA          MG SENHOR CAIXA APOS O VENCIMENTO COBRAR J00 000201
1022542123500018830945000316741000000                         0000000137300100       0000000000          201010023040917100917000000000349075630945010211116010100099000100020000000000000000000900000000000000000000000000100042253535672belchiolina dos reis martins            RUA PIAUI                       ,618 SAO GERALDO    38180082ARAXA          MG SENHOR CAIXA APOS O VENCIMENTO COBRAR J00 000202
1022542123500018830945000316741000000                         0000000137480100       0000000000          201010023041017101017000000000349075630945010211116010100099000100020000000000000000000900000000000000000000000000100042253535672belchiolina dos reis martins            RUA PIAUI                       ,618 SAO GERALDO    38180082ARAXA          MG SENHOR CAIXA APOS O VENCIMENTO COBRAR J00 000203
1022542123500018830945000316741000000                         0000000137550100       0000000000          201010023041117101117000000000349075630945010211116010100099000100020000000000000000000900000000000000000000000000100042253535672belchiolina dos reis martins            RUA PIAUI                       ,618 SAO GERALDO    38180082ARAXA          MG SENHOR CAIXA APOS O VENCIMENTO COBRAR J00 000204
1022542123500018830945000316741000000                         0000000137620100       0000000000          201010023041217101217000000000349075630945010211116010100099000100020000000000000000000900000000000000000000000000100042253535672belchiolina dos reis martins            RUA PIAUI                       ,618 SAO GERALDO    38180082ARAXA          MG SENHOR CAIXA APOS O VENCIMENTO COBRAR J00 000205
1022542123500018830945000316741000000                         0000000137700100       0000000000          201010023060117100117000000000349075630945010211116010100099000100020000000000000000000900000000000000000000000000100002840271621roseneide monteiro vitor                RUA IRMAS FRANCISCANAS          ,105 ANA ANTONIA    38180000ARAXA          MG SENHOR CAIXA APOS O VENCIMENTO COBRAR J00 000206
1022542123500018830945000316741000000                         0000000137870100       0000000000          201010023060217100217000000000349075630945010211116010100099000100020000000000000000000900000000000000000000000000100002840271621roseneide monteiro vitor                RUA IRMAS FRANCISCANAS          ,105 ANA ANTONIA    38180000ARAXA          MG SENHOR CAIXA APOS O VENCIMENTO COBRAR J00 000207
1022542123500018830945000316741000000                         0000000137940100       0000000000          201010023060317100317000000000349075630945010211116010100099000100020000000000000000000900000000000000000000000000100002840271621roseneide monteiro vitor                RUA IRMAS FRANCISCANAS          ,105 ANA ANTONIA    38180000ARAXA          MG SENHOR CAIXA APOS O VENCIMENTO COBRAR J00 000208
1022542123500018830945000316741000000                         0000000138020100       0000000000          201010023060417100417000000000349075630945010211116010100099000100020000000000000000000900000000000000000000000000100002840271621roseneide monteiro vitor                RUA IRMAS FRANCISCANAS          ,105 ANA ANTONIA    38180000ARAXA          MG SENHOR CAIXA APOS O VENCIMENTO COBRAR J00 000209
1022542123500018830945000316741000000                         0000000138100100       0000000000          201010023060517100517000000000349075630945010211116010100099000100020000000000000000000900000000000000000000000000100002840271621roseneide monteiro vitor                RUA IRMAS FRANCISCANAS          ,105 ANA ANTONIA    38180000ARAXA          MG SENHOR CAIXA APOS O VENCIMENTO COBRAR J00 000210
1022542123500018830945000316741000000                         0000000138270100       0000000000          201010023060617100617000000000349075630945010211116010100099000100020000000000000000000900000000000000000000000000100002840271621roseneide monteiro vitor                RUA IRMAS FRANCISCANAS          ,105 ANA ANTONIA    38180000ARAXA          MG SENHOR CAIXA APOS O VENCIMENTO COBRAR J00 000211
1022542123500018830945000316741000000                         0000000138340100       0000000000          201010023060717100717000000000349075630945010211116010100099000100020000000000000000000900000000000000000000000000100002840271621roseneide monteiro vitor                RUA IRMAS FRANCISCANAS          ,105 ANA ANTONIA    38180000ARAXA          MG SENHOR CAIXA APOS O VENCIMENTO COBRAR J00 000212
1022542123500018830945000316741000000                         0000000138410100       0000000000          201010023060817100817000000000349075630945010211116010100099000100020000000000000000000900000000000000000000000000100002840271621roseneide monteiro vitor                RUA IRMAS FRANCISCANAS          ,105 ANA ANTONIA    38180000ARAXA          MG SENHOR CAIXA APOS O VENCIMENTO COBRAR J00 000213
1022542123500018830945000316741000000                         0000000138590100       0000000000          201010023060917100917000000000349075630945010211116010100099000100020000000000000000000900000000000000000000000000100002840271621roseneide monteiro vitor                RUA IRMAS FRANCISCANAS          ,105 ANA ANTONIA    38180000ARAXA          MG SENHOR CAIXA APOS O VENCIMENTO COBRAR J00 000214
1022542123500018830945000316741000000                         0000000138660100       0000000000          201010023061017101017000000000349075630945010211116010100099000100020000000000000000000900000000000000000000000000100002840271621roseneide monteiro vitor                RUA IRMAS FRANCISCANAS          ,105 ANA ANTONIA    38180000ARAXA          MG SENHOR CAIXA APOS O VENCIMENTO COBRAR J00 000215
1022542123500018830945000316741000000                         0000000138730100       0000000000          201010023061117101117000000000349075630945010211116010100099000100020000000000000000000900000000000000000000000000100002840271621roseneide monteiro vitor                RUA IRMAS FRANCISCANAS          ,105 ANA ANTONIA    38180000ARAXA          MG SENHOR CAIXA APOS O VENCIMENTO COBRAR J00 000216
1022542123500018830945000316741000000                         0000000138800100       0000000000          201010023061217101217000000000349075630945010211116010100099000100020000000000000000000900000000000000000000000000100002840271621roseneide monteiro vitor                RUA IRMAS FRANCISCANAS          ,105 ANA ANTONIA    38180000ARAXA          MG SENHOR CAIXA APOS O VENCIMENTO COBRAR J00 000217
1022542123500018830945000316741000000                         0000000138980100       0000000000          201010023330117100117000000000349075630945010211116010100099000100020000000000000000000900000000000000000000000000100059618698653WELLINGTON JOSE BARBOSA                 RUA SADY PERFEITO               ,372CVILA PADRE A   38182340ARAXA          MG SENHOR CAIXA APOS O VENCIMENTO COBRAR J00 000218
1022542123500018830945000316741000000                         0000000139060100       0000000000          201010023330217100217000000000349075630945010211116010100099000100020000000000000000000900000000000000000000000000100059618698653WELLINGTON JOSE BARBOSA                 RUA SADY PERFEITO               ,372CVILA PADRE A   38182340ARAXA          MG SENHOR CAIXA APOS O VENCIMENTO COBRAR J00 000219
1022542123500018830945000316741000000                         0000000139130100       0000000000          201010023330317100317000000000349075630945010211116010100099000100020000000000000000000900000000000000000000000000100059618698653WELLINGTON JOSE BARBOSA                 RUA SADY PERFEITO               ,372CVILA PADRE A   38182340ARAXA          MG SENHOR CAIXA APOS O VENCIMENTO COBRAR J00 000220
1022542123500018830945000316741000000                         0000000139200100       0000000000          201010023330417100417000000000349075630945010211116010100099000100020000000000000000000900000000000000000000000000100059618698653WELLINGTON JOSE BARBOSA                 RUA SADY PERFEITO               ,372CVILA PADRE A   38182340ARAXA          MG SENHOR CAIXA APOS O VENCIMENTO COBRAR J00 000221
1022542123500018830945000316741000000                         0000000139380100       0000000000          201010023330517100517000000000349075630945010211116010100099000100020000000000000000000900000000000000000000000000100059618698653WELLINGTON JOSE BARBOSA                 RUA SADY PERFEITO               ,372CVILA PADRE A   38182340ARAXA          MG SENHOR CAIXA APOS O VENCIMENTO COBRAR J00 000222
1022542123500018830945000316741000000                         0000000139450100       0000000000          201010023330617100617000000000349075630945010211116010100099000100020000000000000000000900000000000000000000000000100059618698653WELLINGTON JOSE BARBOSA                 RUA SADY PERFEITO               ,372CVILA PADRE A   38182340ARAXA          MG SENHOR CAIXA APOS O VENCIMENTO COBRAR J00 000223
1022542123500018830945000316741000000                         0000000139520100       0000000000          201010023330717100717000000000349075630945010211116010100099000100020000000000000000000900000000000000000000000000100059618698653WELLINGTON JOSE BARBOSA                 RUA SADY PERFEITO               ,372CVILA PADRE A   38182340ARAXA          MG SENHOR CAIXA APOS O VENCIMENTO COBRAR J00 000224
1022542123500018830945000316741000000                         0000000139600100       0000000000          201010023330817100817000000000349075630945010211116010100099000100020000000000000000000900000000000000000000000000100059618698653WELLINGTON JOSE BARBOSA                 RUA SADY PERFEITO               ,372CVILA PADRE A   38182340ARAXA          MG SENHOR CAIXA APOS O VENCIMENTO COBRAR J00 000225
1022542123500018830945000316741000000                         0000000139770100       0000000000          201010023330917100917000000000349075630945010211116010100099000100020000000000000000000900000000000000000000000000100059618698653WELLINGTON JOSE BARBOSA                 RUA SADY PERFEITO               ,372CVILA PADRE A   38182340ARAXA          MG SENHOR CAIXA APOS O VENCIMENTO COBRAR J00 000226
1022542123500018830945000316741000000                         0000000139840100       0000000000          201010023331017101017000000000349075630945010211116010100099000100020000000000000000000900000000000000000000000000100059618698653WELLINGTON JOSE BARBOSA                 RUA SADY PERFEITO               ,372CVILA PADRE A   38182340ARAXA          MG SENHOR CAIXA APOS O VENCIMENTO COBRAR J00 000227
1022542123500018830945000316741000000                         0000000139910100       0000000000          201010023331117101117000000000349075630945010211116010100099000100020000000000000000000900000000000000000000000000100059618698653WELLINGTON JOSE BARBOSA                 RUA SADY PERFEITO               ,372CVILA PADRE A   38182340ARAXA          MG SENHOR CAIXA APOS O VENCIMENTO COBRAR J00 000228
1022542123500018830945000316741000000                         0000000140050100       0000000000          201010023331217101217000000000349075630945010211116010100099000100020000000000000000000900000000000000000000000000100059618698653WELLINGTON JOSE BARBOSA                 RUA SADY PERFEITO               ,372CVILA PADRE A   38182340ARAXA          MG SENHOR CAIXA APOS O VENCIMENTO COBRAR J00 000229
1022542123500018830945000316741000000                         0000000140120100       0000000000          201010023390117100117000000000349075630945010211116010100099000100020000000000000000000900000000000000000000000000100036159450697sebastiao jose pereira                  RUA BRIGIDO DE MELO FILHO       ,459 BOM JESUS      38181022ARAXA          MG SENHOR CAIXA APOS O VENCIMENTO COBRAR J00 000230
1022542123500018830945000316741000000                         0000000140200100       0000000000          201010023390217100217000000000349075630945010211116010100099000100020000000000000000000900000000000000000000000000100036159450697sebastiao jose pereira                  RUA BRIGIDO DE MELO FILHO       ,459 BOM JESUS      38181022ARAXA          MG SENHOR CAIXA APOS O VENCIMENTO COBRAR J00 000231
1022542123500018830945000316741000000                         0000000140370100       0000000000          201010023390317100317000000000349075630945010211116010100099000100020000000000000000000900000000000000000000000000100036159450697sebastiao jose pereira                  RUA BRIGIDO DE MELO FILHO       ,459 BOM JESUS      38181022ARAXA          MG SENHOR CAIXA APOS O VENCIMENTO COBRAR J00 000232
1022542123500018830945000316741000000                         0000000140440100       0000000000          201010023390417100417000000000349075630945010211116010100099000100020000000000000000000900000000000000000000000000100036159450697sebastiao jose pereira                  RUA BRIGIDO DE MELO FILHO       ,459 BOM JESUS      38181022ARAXA          MG SENHOR CAIXA APOS O VENCIMENTO COBRAR J00 000233
1022542123500018830945000316741000000                         0000000140510100       0000000000          201010023390517100517000000000349075630945010211116010100099000100020000000000000000000900000000000000000000000000100036159450697sebastiao jose pereira                  RUA BRIGIDO DE MELO FILHO       ,459 BOM JESUS      38181022ARAXA          MG SENHOR CAIXA APOS O VENCIMENTO COBRAR J00 000234
1022542123500018830945000316741000000                         0000000140690100       0000000000          201010023390617100617000000000349075630945010211116010100099000100020000000000000000000900000000000000000000000000100036159450697sebastiao jose pereira                  RUA BRIGIDO DE MELO FILHO       ,459 BOM JESUS      38181022ARAXA          MG SENHOR CAIXA APOS O VENCIMENTO COBRAR J00 000235
1022542123500018830945000316741000000                         0000000140760100       0000000000          201010023390717100717000000000349075630945010211116010100099000100020000000000000000000900000000000000000000000000100036159450697sebastiao jose pereira                  RUA BRIGIDO DE MELO FILHO       ,459 BOM JESUS      38181022ARAXA          MG SENHOR CAIXA APOS O VENCIMENTO COBRAR J00 000236
1022542123500018830945000316741000000                         0000000140830100       0000000000          201010023390817100817000000000349075630945010211116010100099000100020000000000000000000900000000000000000000000000100036159450697sebastiao jose pereira                  RUA BRIGIDO DE MELO FILHO       ,459 BOM JESUS      38181022ARAXA          MG SENHOR CAIXA APOS O VENCIMENTO COBRAR J00 000237
1022542123500018830945000316741000000                         0000000140900100       0000000000          201010023390917100917000000000349075630945010211116010100099000100020000000000000000000900000000000000000000000000100036159450697sebastiao jose pereira                  RUA BRIGIDO DE MELO FILHO       ,459 BOM JESUS      38181022ARAXA          MG SENHOR CAIXA APOS O VENCIMENTO COBRAR J00 000238
1022542123500018830945000316741000000                         0000000141090100       0000000000          201010023391017101017000000000349075630945010211116010100099000100020000000000000000000900000000000000000000000000100036159450697sebastiao jose pereira                  RUA BRIGIDO DE MELO FILHO       ,459 BOM JESUS      38181022ARAXA          MG SENHOR CAIXA APOS O VENCIMENTO COBRAR J00 000239
1022542123500018830945000316741000000                         0000000141160100       0000000000          201010023391117101117000000000349075630945010211116010100099000100020000000000000000000900000000000000000000000000100036159450697sebastiao jose pereira                  RUA BRIGIDO DE MELO FILHO       ,459 BOM JESUS      38181022ARAXA          MG SENHOR CAIXA APOS O VENCIMENTO COBRAR J00 000240
1022542123500018830945000316741000000                         0000000141230100       0000000000          201010023391217101217000000000349075630945010211116010100099000100020000000000000000000900000000000000000000000000100036159450697sebastiao jose pereira                  RUA BRIGIDO DE MELO FILHO       ,459 BOM JESUS      38181022ARAXA          MG SENHOR CAIXA APOS O VENCIMENTO COBRAR J00 000241
1022542123500018830945000316741000000                         0000000156940100       0000000000          201010028940117100117000000000349075630945010211116010100099000100020000000000000000000900000000000000000000000000100070045925615mara cristina de souza                  RUA RIO BRANCO                  ,853 CENTRO         38184024ARAXA          MG SENHOR CAIXA APOS O VENCIMENTO COBRAR J00 000242
1022542123500018830945000316741000000                         0000000157020100       0000000000          201010028940217100217000000000349075630945010211116010100099000100020000000000000000000900000000000000000000000000100070045925615mara cristina de souza                  RUA RIO BRANCO                  ,853 CENTRO         38184024ARAXA          MG SENHOR CAIXA APOS O VENCIMENTO COBRAR J00 000243
1022542123500018830945000316741000000                         0000000157100100       0000000000          201010028940317100317000000000349075630945010211116010100099000100020000000000000000000900000000000000000000000000100070045925615mara cristina de souza                  RUA RIO BRANCO                  ,853 CENTRO         38184024ARAXA          MG SENHOR CAIXA APOS O VENCIMENTO COBRAR J00 000244
1022542123500018830945000316741000000                         0000000157270100       0000000000          201010028940417100417000000000349075630945010211116010100099000100020000000000000000000900000000000000000000000000100070045925615mara cristina de souza                  RUA RIO BRANCO                  ,853 CENTRO         38184024ARAXA          MG SENHOR CAIXA APOS O VENCIMENTO COBRAR J00 000245
1022542123500018830945000316741000000                         0000000157340100       0000000000          201010028940517100517000000000349075630945010211116010100099000100020000000000000000000900000000000000000000000000100070045925615mara cristina de souza                  RUA RIO BRANCO                  ,853 CENTRO         38184024ARAXA          MG SENHOR CAIXA APOS O VENCIMENTO COBRAR J00 000246
1022542123500018830945000316741000000                         0000000157410100       0000000000          201010028940617100617000000000349075630945010211116010100099000100020000000000000000000900000000000000000000000000100070045925615mara cristina de souza                  RUA RIO BRANCO                  ,853 CENTRO         38184024ARAXA          MG SENHOR CAIXA APOS O VENCIMENTO COBRAR J00 000247
1022542123500018830945000316741000000                         0000000157590100       0000000000          201010028940717100717000000000349075630945010211116010100099000100020000000000000000000900000000000000000000000000100070045925615mara cristina de souza                  RUA RIO BRANCO                  ,853 CENTRO         38184024ARAXA          MG SENHOR CAIXA APOS O VENCIMENTO COBRAR J00 000248
